:020000041000EA
:1000000000B5324B212058609868022188439860DF
:10001000D860186158612E4B002199600221596106
:100020000121F02299502B49196001219960352056
:1000300000F044F80222904214D00621196600F024
:1000400034F8196E01211966002018661A6600F04E
:100050002CF8196E196E196E052000F02FF8012189
:100060000842F9D1002199601B49196000215960AB
:100070001A491B48016001219960EB211966A021F2
:10008000196600F012F800219960164914480160C1
:100090000121996001BC002800D000471248134993
:1000A000086003C880F30888084703B5996A0420EC
:1000B0000142FBD001200142F8D103BD02B5186610
:1000C0001866FFF7F2FF186E186E02BD00000240BE
:1000D000000000180000070000035F00212200005C
:1000E000F4000018222000A00001001008ED00E03C
:1000F00000000000000000000000000074B24E7A12
:1001000000200420F7010010CB010010CD010010E9
:10011000C9010010C9010010C9010010C901001077
:10012000C9010010C9010010C9010010CF01001061
:10013000C9010010C9010010D1010010D301001045
:10014000C1010010C1010010C1010010C101001067
:10015000C1010010C1010010C1010010C101001057
:10016000C1010010C1010010C1010010C101001047
:10017000C1010010C1010010C1010010C101001037
:10018000C1010010C1010010C1010010C101001027
:10019000C1010010C1010010C1010010C101001017
:1001A000C1010010C1010010C1010010C101001007
:1001B000C1010010C1010010C1010010C1010010F7
:1001C000EFF30580103800BE00BE00BE00BE00BECA
:1001D00000BE00BEF2EB8871D02408100025081084
:1001E0003802001090A31AE71E481F49086006C88D
:1001F00081F3088810471D480068002801D019487D
:10020000F3E70DA40ECC002902D000F012F8F9E7B4
:100210001749184A002000E001C19142FCD116495B
:100220008847164988471649884700BEFDE701C937
:1002300001C29A42FBD3704700250810C00000207D
:100240004811002088350810000004200000042018
:100250008835081000100420001004200000000061
:10026000704700000000000008ED00E0000000D032
:100270004811002028280020ED500010D502001061
:10028000E5500010F8B5C04606480749091A8B101A
:10029000C90FC91810B5491003D0044B002B00D06A
:1002A000984710BD481100204811002000000000B0
:1002B000054B10B5002B03D00449054800E000BFF2
:1002C000FFF7E2FF10BDC04600000000A427002099
:1002D0004CBB001070B505F03BF8FA20C00001F0EF
:1002E000F5FF00F0DDF8192000F062F8244B05223C
:1002F0002448254900F05AFF244D012229002448B2
:100300000AF0A6FD234B011E187008D0224805F004
:10031000FBF8032000F068F800F06CF8FCE71F48D9
:1003200005F06AF8012000F05FF8642400F062F83C
:10033000013C0A2001F0CAFF002CF7D1002000F098
:1003400053F8174C200000F0C1FF164805F054F890
:10035000280000F07FFF144805F04EF8200000F060
:10036000E7FF0022290010000AF072FD0F4805F097
:1003700043F800F03FF80A2001F0A8FFF9E7C04673
:1003800040241400DC27002000C0034050BB0010B4
:10039000602100201F28002054BB001080BB0010EB
:1003A0009CBB0010B0BB0010D4BB0010F4BB00100D
:1003B00010B50A4C206001F00DF80123226893402B
:1003C000D0221206536293610022054B1A7002F08C
:1003D00027F8044B1860596010BDC04698270020CC
:1003E0001E280020D0120020014B18707047C04614
:1003F0001E280020F0B5C64600B5254B1B78002B03
:100400002AD0012B3CD0022B2ED064230025984605
:10041000204C2668676802F003F8FA22801BB94175
:100420000023920002F04AFC8D4212DC21D001210F
:10043000194A13784B401370184A116801228A40F8
:10044000002B19D1D0231B069A6101F0E9FF20602F
:10045000616080BCB846F0BD104B1A680123934020
:10046000D02212069361F4E7FA239B0098460025F8
:10047000CEE78045EDD8DAE7D0231B065A61E4E7E2
:10048000064A12689340D02212065361E1E7C04643
:100490001E280020D01200202228002098270020AB
:1004A00010B5084908480BF049F90121022000F075
:1004B00077FF0121032000F073FF0121042000F0E9
:1004C0006FFF10BDA086010000C0034070B516008C
:1004D00080220D00154CFF21A5440400920004A8C1
:1004E00003F04CFA2A00FF25330004A920680BF022
:1004F000EBFA03A9012220680D700BF0DDFA02A9C6
:10050000012220680D700BF0D7FA0123626801A95F
:100510009340D02212065361206801220D700BF027
:10052000CBFA84239B009D4470BDC046F0FDFFFFC5
:10053000F0B5CE4647469946012380B5070040688E
:1005400085B08340D0200006836140200143FF2016
:10055000130E1B02000410401943130A1B0601432B
:1005600019436B461A7300236A4602915373386825
:10057000062202A90BF0A0FA6B46FA25DC1DFF2328
:10058000AD00984601AE02E0013D002D24D0434667
:10059000220033703100012338680BF095FA0022F5
:1005A000A2562078002AEFDB4B46002B04D105B081
:1005B000C0BCB946B046F0BD01237A686946934095
:1005C000D022120653616B46424638681A700122E7
:1005D0000BF072FA2078EAE701237A683100934041
:1005E000D0221206536143460122386833700BF063
:1005F00063FA01204042DAE7F0B557464E464546D9
:10060000DE46FA23E0B59B0085B099466B46DC1DBB
:100610000123D02705009A4601AE3F0652466B687B
:1006200028689A407723BA61029300226B4602A998
:100630009A8106320BF040FAFA239B009846FF237A
:100640009B462B004546984602E0013D002D0CD00C
:1006500043465A4618686B4669461A7001232200C1
:100660000BF032FA23787F2BEFD8454652466B6861
:1006700031009A405B467A612868012233700BF0A2
:100680001BFA52466B6828689A406923BA61029344
:1006900000226B4602A99A8106320BF00DFAFA236A
:1006A0009B009846FF239B462B004546984602E058
:1006B000013D002D26D043465A4618686B466946D0
:1006C0001A70012322000BF0FFF923787F2BEFD85B
:1006D000454652466B6831009A405B467A6128680D
:1006E000337001220BF0E8F92378002B17D0012397
:1006F0005B429C46E1444B46002B8FD10E4804F0F0
:100700007BFE12E0454652466B6831009A405B46DC
:100710007A612868012233700BF0CEF9E7E7802375
:100720009B000648EB6004F067FE05B0F0BCBB46DA
:10073000B246A946A046F0BD2CBC001010BC00106B
:10074000F0B557464546DE464E46FA23E0B59B00D7
:1007500087B0019302ABDC1D01239A460023D0270A
:100760009B46FF330500984603AE3F06322001F05A
:10077000ADFD52466B6828689A407A23BA615A46A2
:10078000049302AB9A8104A906220BF095F9FA238F
:100790009B0099462B004D46994602E0013D002DF5
:1007A0001DD04B464246186802AB1A7002A90123BD
:1007B00022000BF089F923787F2BEFD84D460423D4
:1007C00099462B004D4699464B46186843460122F0
:1007D00031003370013D0BF06FF9002DF4D14D461F
:1007E00052466B6831009A4043467A61286801227C
:1007F00033700BF061F952466B6828689A40772392
:10080000BA615A46049302AB9A8104A906220BF0FE
:1008100053F9FA239B0099462B004D46994602E076
:10082000013D002D0CD04B464246186802AB1A70B1
:1008300002A9012322000BF047F923787F2BEFD880
:100840004D4652466B6831009A4043467A612868AB
:10085000012233700BF030F952466B6828689A40D9
:10086000BA615A464B4B04A9049302AB9A81062203
:100870000BF022F9FA239B0099462B004D4699462E
:1008800002E0013D002D25D04B464246186802ABE0
:100890001A7002A9012322000BF016F923787F2B8E
:1008A000EFD84D4652466B6831009A4043467A6114
:1008B0002868012233700BF0FFF82278002A16D046
:1008C000019B013B0193002B00D04FE7324804F01D
:1008D00093FD49E04D4652466B6831009A404346CD
:1008E0007A612868012233700BF0E6F8E8E7514698
:1008F0006B68286899407A23B961049302AB9A81A6
:1009000004A906220BF0D8F8FA27FF23BF00984667
:1009100002E0013F002F2ED0424602AB1A70286839
:100920000123220002A90BF0CFF823787F2BF0D807
:100930000424FF270122310028683770013C0BF0A6
:10094000BBF8002CF6D101236A6831009340D02215
:10095000120653612868012237700BF0ADF80123AD
:100960000E48EB6004F048FD07B0F0BCBB46B24651
:10097000A946A046F0BD01236A6831009340D02209
:100980001206536143460122286833700BF094F835
:10099000E5E7C046694000006CBC001050BC001088
:1009A000F0B5DE464E4645465746E0B5050087B0F1
:1009B0004068884600F00EFD01236A68DE499340D6
:1009C000D02212065362286853610AF0B7FE022251
:1009D0002868DA49436841180A6001681340053203
:1009E0005140C8320A408021490141180A60D44A66
:1009F0001024821813606B469E1DFF23337000E0A5
:100A0000286801223100013C0BF056F8002CF7D188
:100A100005239A466B46DC1D01239B4601AE5A46D0
:100A20006B6828689A401300D02212069361402315
:100A30006A460293C34B02A9938106220BF03CF84D
:100A4000FA27FF23BF00994603E0013F002F00D1A2
:100A5000DBE06B464A4669461A702868012322008B
:100A60000BF032F823787F2BEFD85A466B683100B1
:100A70009A401300D022120653614B460122337074
:100A800028680BF019F82378012B06D001235B426C
:100A90009C46E2445346002BC1D101236A68286872
:100AA0009340D0221206936140236A460293A54BDD
:100AB00002A9938106220AF0FFFFFA27FF23BF0055
:100AC0009A4603E0013F002F00D1ACE06B4652464E
:100AD00069461A702868012322000AF0F5FF23787E
:100AE0007F2BEFD801236A6831009340D022120691
:100AF0005361534691463370012228680AF0DCFFA7
:100B00002378012B00D09BE06A68286893404A460E
:100B100093616A468C4B02A902938C4B9381062207
:100B20000AF0CAFFFA239B009946FF234F469A46D4
:100B300003E0013F002F00D1EDE06B4652466946CD
:100B40001A702868012322000AF0BEFF23787F2B49
:100B5000EFD804239946FB339A464F465346012269
:100B6000310028683370013F0AF0A6FF002FF5D14D
:100B700001236A6831009340D02212065361534624
:100B80000122337028680AF097FF2378012B00D1E7
:100B9000E2E0052B00D0CBE02800FFF72DFD01237C
:100BA0006A6828689340D0221206936149236A46F6
:100BB0000293002302A9938106220AF07DFFFA2303
:100BC0009B009946FF234F469A4603E0013F002FC2
:100BD00000D1C5E05346220033703100012328685C
:100BE0000AF072FF0023E3562278002BEEDB002A86
:100BF00000D0C2E001236A68FA269340D022120690
:100C00009361FF23B60099462CE001236A68310006
:100C10009340D022120653614B460122286833705C
:100C20000AF04AFF32E701236A6831009340D0227C
:100C30001206536153460122286833700AF03CFFC4
:100C4000434804F0D9FB07B0F0BCBB46B246A94606
:100C5000A046F0BD64200021013E01F023FB002EE0
:100C600000D199E06B464A4628681A7202A901230E
:100C700022000AF029FF2378FE2BEBD11022280056
:100C800002A9FFF723FC6B461B7A3F221900914310
:100C9000402976D03F2B00D98CE06B469A7B03230A
:100CA00013406A46D27BC021920013436A46127CED
:100CB000090112010A4013436A46517C0622490089
:100CC0000A406946897C0133C9090A4302329340CC
:100CD0008022AB601021012328009200FFF728FC3E
:100CE000002855D1414628680AF028FD02212B68CA
:100CF00012485A681818016018680A4005314840BF
:100D0000C831014080204001181801600C498C4610
:100D100063441A6097E701236A6831009340D02248
:100D20001206536153460122286833700AF0C4FE4C
:100D3000084804F061FB86E7A0860100043000004B
:100D4000042000000095FFFF48000001AA87FFFF74
:100D500090BC0010ACBC00102800FFF7F1FC1EE7AF
:100D600001236A6831009340D02212065361534632
:100D70000122286833700AF09FFE104804F03CFB03
:100D800061E76B461B8A5BBA9BB201339B029FE70C
:100D90000B4804F031FB56E72378FE2B00D16DE7BA
:100DA00001236A6807489340D0221206536104F079
:100DB00023FB68E7044804F01FFB44E7D8BC00109D
:100DC0004CBD001000BD001024BD0010F0B5D6468B
:100DD0004F46464615000122C0B586B01E0091461A
:100DE0006B46D97149464268040091400A00D021FF
:100DF000073309068A618A460122190000680AF051
:100E00005BFE3200290020680AF056FEFF23984658
:100E100002A9012220680B700AF04EFE434603A986
:100E20000122172620680B700AF046FE434604A9EB
:100E30006E4432000B702068FE3B0AF045FE1F2313
:100E40003278FF27134005AD052B1BD1012332005B
:100E5000290020682F700AF037FE3378002BF5D078
:100E60000123626829009340D02212065361206852
:100E700001222F700AF020FE06B0E0BCBA46B1464F
:100E8000A846F0BD4A46636829009A4013005246BE
:100E900053614346012220682B700AF00DFEEBE7F8
:100EA000F0B557464E46DE464546E0B5914607004A
:100EB00089B0DA0500D089E080229200934200D206
:100EC00084E0C2685C0A4A430023012C00D18EE012
:100ED0001221FFF72DFB002800D0B2E002AB9C46A8
:100EE000012364020B264C44A2469B466B4B06AD85
:100EF000664401935A467B68FA249A40D0231B0625
:100F00009A61FF23A400984606E064200021013C7A
:100F100001F0C8F9002C5DD0434632002B70290047
:100F2000012338680AF0D0FD3378FE2BEDD1802202
:100F3000494638009200FFF7C9FA80239B009C467F
:100F4000E144CA45D6D101237A6829009340D022D2
:100F5000120693614C230693514B0622AB803868EE
:100F60000AF0AAFDFF2305AC2A0023702100FE3BF6
:100F700038680AF0A9FDFA25FF23AD00984603AEB4
:100F800002E0013D002D6BD043462200337031005A
:100F9000012338680AF098FD23787F2BF1D80123CC
:100FA0007A6804A99340D022120653614346012275
:100FB0000B7038680AF080FD2378002B5DD109B0F2
:100FC000F0BCBB46B246A946A046F0BD354804F089
:100FD00013FAF4E73378FE2BA9D05A467B680198C0
:100FE0009A40D0231B065A6104F006FAA5E71121A6
:100FF000FFF79EFAD0227B6812069C4000282AD177
:10100000FA26FF2394619846B60005AC06AD06E0CB
:1010100064200021013E01F045F9002E31D0434605
:101020002A0023702100012338680AF04DFD2B7837
:10103000FE2BEDD18022494638009200FFF746FA98
:10104000BDE701237A6818489340D0221206536105
:1010500004F0D2F9B3E75461144804F0CDF9AEE7D7
:1010600001237A6804A99340D022120653614346B3
:10107000012238680B700AF01FFD0D4804F0BCF91E
:101080009DE72B78FE2BD5D001237A680348934047
:10109000D0221206536104F0AFF990E700BD0010B2
:1010A00000FFFFFF6CBD0010A0BD00108CBD001044
:1010B000B4BD0010F0B51400050083B0DA054FD1BF
:1010C0008027BF00BB424BD3C2685E0A4A4301235C
:1010D000012E49D01921FFF72BFA002850D17602B2
:1010E000A619802322009B00FC212800FFF76EFE3A
:1010F00080239B009C466444A642F2D16B46991D16
:10110000FD236A680B70FC3B9340D022120693616A
:10111000286801220AF0D0FCFF236A466946137052
:10112000286801220AF0C8FC6B46FF2701ACDE1DCF
:10113000012332002100286827700AF0C5FC3378AB
:10114000002BF5D001236A6821009340D0221206BB
:1011500053612868012227700AF0AEFC03B0F0BD8D
:101160000B4804F049F9F9E71821FFF7E1F90028E5
:101170000AD13B002200FE212800FFF727FEEDE701
:10118000044804F039F9E9E7034804F035F9E5E7E4
:101190006CBD0010DCBD0010C8BD001003000020B5
:1011A000042900D070479868FCE7C04642600022DE
:1011B00010B5016082601900C260FFF7F1FB10BD3D
:1011C000431E9841C0B27047431E9841C0B2704759
:1011D00010B50C0011000122002801D0100010BD34
:1011E000220003485B02FFF75BFE0022F6E7C046E1
:1011F000DC27002010B50C0011000122002801D0CE
:10120000100010BD220003485B02FFF753FF0022CD
:10121000F6E7C046DC27002010B5012314000028A3
:101220000AD102290FD009D8002904D00421084886
:10123000FFF7B4FF20600023180010BD0329FBD185
:1012400013600023F8E780239B0013800023F3E75B
:10125000DC270020F0B5C646164D0100040000B59D
:1012600028000AF09BF9144E021E30701DD1210097
:10127000124804F049F916239846114C114FA04426
:1012800006E0A37D002B0AD04146380004F03CF96B
:10129000210028000AF0DEF930700028F1D0280083
:1012A0000AF0BEF980BCB846F0BD2100064804F043
:1012B0002BF9F7E7E41D00201F280020F0BD0010E7
:1012C000482000200CBE001014BE001030B5124C97
:1012D00001000A22200083B009F0EAFD0F4D021E32
:1012E000287014D1163220000D4901AB09F0E4FF3B
:1012F000021E287002D1019B162B03D009490A480F
:1013000004F002F920000AF0D1F803B030BD05491D
:10131000064804F0F9F8F8E71C1E00201F280020FA
:1013200044BE00105CBE001070BE00109CBE0010D9
:1013300030B5154C01000122200093B009F0B8FD32
:10134000124D021E287010D13F32200001AB02A9BD
:1013500009F0D2FE021E28700DD00D490D4804F090
:10136000D3F820000AF0A2F803E009490A4804F083
:10137000CBF813B030BD69460820019B0918074817
:10138000CA5404F0C1F8ECE71C1E00201F280020FE
:101390005CBE0010D8BE001000BF0010C4BE00101C
:1013A000094A83009A1810B51468402254408032CC
:1013B0002240064CC000A44663441A60044B9C467D
:1013C0006044416010BDC04604C0014004D00140EB
:1013D000004001400123D0228340120693629361B2
:1013E000094A83009A1811684022514080320A400D
:1013F0000649C0008C4663441A60054B9C46052391
:10140000604443607047C04604C0014004D00140BE
:10141000004001408023DB051868000F7047C0467C
:101420000FB400B5084883B003F0E6FF049B002B1F
:1014300007D005A91800019103F03AFE034803F014
:10144000DBFF012003F04CFE34BF001010BE001083
:1014500070B5EFF3108C72B60D4D2B68002BFCD0DD
:10146000BFF35F8F0724CB08C618C05C01230C4074
:10147000A3401C000440034207D118433070BFF35F
:101480005F8F2C608CF3108870BD1000FFF7C8FFD1
:101490002C0100D0F8B54746CE46884680B5EFF31C
:1014A000108C72B6214D2C68002CFCD0BFF35F8FDE
:1014B0009A422CD8D4080727055D06190124174045
:1014C000BC402C421FD007210127894609E0D408DF
:1014D000055D06194C4639001440A1400C00294214
:1014E00011D001329342F2D201204042BFF35F8F0C
:1014F00000220E4B1A608CF3108800280FDBC0BC52
:10150000B946B046F8BD254310003570EEE7BFF38D
:101510005F8F00232B608CF31088012040424346EC
:10152000002BECD00898FFF77BFFC0462C0100D0C1
:10153000044A1078431CDBB2172B00D91023137018
:101540007047C0466810002010B5064B064C82B0AC
:101550000100009318221F232000FFF79BFF02B019
:1015600010BDC04644BF00108C1D00200021044B5C
:10157000044ABFF35F8F02C39342FAD17047C0465B
:10158000000100D0800100D0054B064A1360064AD6
:10159000136053609360D36013615361936170472C
:1015A0008080808000E400E004E400E01F23184015
:1015B0001E3B8340002905D0C021044A49005350F6
:1015C00013607047802201498B50FAE700E100E088
:1015D00001228240034B1B6813405A1E9341D8B22C
:1015E0007047C04600E100E001238340014A1360D8
:1015F0007047C04600E200E0064B10309B68800058
:10160000C358054A00209B1A2F229A424041C0B27B
:101610007047C04600ED00E06C10002070B50D0072
:10162000EFF3108672B60F4A1368002BFCD0BFF39D
:101630005F8F0D4B10309B6884001B590B4A9342FF
:1016400003D09D4201D001F0B9F9074B9B681D51B1
:10165000BFF35F8FBFF35F8F0022024B1A6086F3E8
:10166000108870BD240100D000ED00E0C101001021
:10167000F0B54E464546DE465746E0B583B0060017
:1016800000919046EFF3108B72B6654A1368002BF9
:10169000FCD0BFF35F8F0025624B5D579A46002D4B
:1016A00000DA79E052466B005F4C5F19BF0001938E
:1016B000E31999469B79103613705C4BB6009B6812
:1016C00099590B1B2F2B33D9594B994200D07CE0F1
:1016D000019B02379C46574B6544AD006353564B04
:1016E000E719043BDB1B554A1B055B0D65191343CA
:1016F0006B80534B0121AB80FF23AB714346EB71F1
:10170000009BAB604B460B431900484B9B689951BB
:10171000BFF35F8FBFF35F8F0022414B1A608BF3E3
:10172000108803B0F0BCBB46B246A946A046F0BD47
:1017300001200A008243D379434549D9BC46474634
:10174000884607E05800C01880002018C179B942C7
:1017500028D902000623D356002BF3DA9A46131D2C
:101760009C464146B846374F484663460438C01A3F
:101770000005324B400D1843019B908095715A191A
:1017800053469200A418A37143462F4AE371009B6D
:101790002260A780A360B8E701F010F90025534646
:1017A0005D577FE79A464146131DB84667469C46FB
:1017B0009088043740050015E7196044C01BE027F6
:1017C0000005400D3F020743CEE701F0F7F87FE741
:1017D00013001E491B1B5B415943090D154BBD1CD2
:1017E000E353154B6519043B5B1B1B05134D5B0D48
:1017F0002B43AC464D466B8065460437131FE719F3
:10180000DB1B1B055B0D1D434B4699714146D9718E
:1018100000999D80996049460B4B0143136074E722
:10182000240100D0202800206C10002000ED00E0F2
:10183000C101001000A1FFFF9C10002000E0FFFF8D
:1018400001BDFFFF01BD000001488047AAAA0000BA
:10185000F0B5DE4657464E464546E0B50C0083B02F
:10186000EFF3108872B6634A1368002BFCD0BFF305
:101870005F8F614B61499A68030010339F00D5590F
:1018800000938D4243D0A54254D05D4EAA1B2F2A0F
:101890003DD85C4B9C461B689A4601231A0099462A
:1018A0008240534613401F2201934B46024093400F
:1018B0009A468022634650469850BFF35F8FEFF3FD
:1018C00005839B46002B37D0009B5B4501D001F080
:1018D00075F82A004B469A439068844208D177E015
:1018E0004B005B189B00F3189868844236D01A00AE
:1018F000062151560029F3DA844255D0019B002B72
:1019000027D0C02251463F4B5200995019603A4BA4
:101910009B68DD51BFF35F8FBFF35F8F0022354BB4
:101920001A6088F3108803B0F0BCBB46B246A946E3
:10193000A046F0BD0D00EAE72A004B469A439068A6
:101940008442D5D106201056130000280ADA0D0073
:1019500032E0802351462B4AD150D8E70620185652
:10196000002822DB42001118890074188946A168FA
:101970009960E179D971062161569971002925DBB9
:10198000A488F11A640524154C440919E0240905BA
:10199000490D24022143998013181B4A9B0011789A
:1019A000F31899711070A9E713005946002914D152
:1019B000FF3191711549918013490A789A71144A3F
:1019C0009B1B5B415A43120D0A7097E71149E2E7EE
:1019D0000620105613000028C4DA0F4A0F49D21A05
:1019E000083A5002400D014399800D4952080A43BC
:1019F000DA8083E7240100D000ED00E0C10100108F
:101A00006C10002000E100E02028002001BDFFFF55
:101A1000AAAA000001BD0000A610002000F0FFFFF0
:101A200000F8FFFF70B501240443EFF30581EFF3E5
:101A3000108C72B6214A1368002BFCD0BFF35F8F65
:101A40001F4B05001F4AED1A6D416A43120D1E4DD2
:101A50008900AE6852B27658A6421CD0062159566B
:101A600091421CD012215956914222D01E21595622
:101A7000914220D02A2159560324914210D0134B71
:101A800019781A708171BFF35F8F00220B4B1A60B7
:101A90008CF3108870BDAB680D4C5C50EFE70024F0
:101AA0006100091989005B18FF2199710949998022
:101AB000E5E70124F4E70224F2E7C046240100D060
:101AC0006C100020AAAA000000ED00E020280020F1
:101AD000C101001001BDFFFF10B5084B084C82B0DA
:101AE00001000093002205232000FFF7D3FC00280B
:101AF00001DB1F23181A02B010BDC04660BF0010E2
:101B000025280020024B9C466144890001607047F3
:101B100040000034F0B5FF23C646144D144F2C008E
:101B2000984600B5BD420DD31DE0FFF701FD010051
:101B30002800FFF7E7FF4346B380BFF35F8FBC4247
:101B400011D22500236826000834002BEDD1FFF7C1
:101B5000EFFC01002800FFF7D5FF43463371BFF3C8
:101B60005F8FBC42EDD380BCB846F0BD4011002071
:101B70004811002010B50400FFF7DAFC0100200036
:101B8000FFF7C0FFFF232371BFF35F8F10BDC04677
:101B900010B504000120FFF7D7FC034BC3189B00CE
:101BA0002360BFF35F8F10BD40000034034B9C46A1
:101BB000614489000160BFF35F8F704740000034CB
:101BC0000A4B1968EFF3108072B60A68002AFCD03D
:101BD000BFF35F8F1B68BFF35F8F00221A6080F333
:101BE000108840BF002000217047C046F027002029
:101BF000F0B5DE4657464E464546E0B585B0EFF3B4
:101C0000058203231340B54A9900575801229A4090
:101C100088469346B24B1A60B24B02935B46B24879
:101C200043630823FE5E002E35DABB881BB2002B0F
:101C300000DBA8E0BB79002B00D0E9E00823F85EC8
:101C400000281EDB43007A691B18DB00D3189D684F
:101C5000DC686B1C00D108E1A34801004144826AA2
:101C60000B69AE1A9B1A9E4213D35A46036A1A4254
:101C70000FD09D4800F0CCFB8C4202DCCED18542D7
:101C8000CCD940BF05B0F0BCBB46B246A946A04681
:101C9000F0BD0D61EDE77A69730091469B19DB0099
:101CA00099444B469C68DD6800F0B2FB8D42BCDC79
:101CB00000D1FCE0002D00DAE1E04A464B465269D3
:101CC0001B699246029A934200D1D2E04A4608210B
:101CD000785E528800045146104398470090019165
:101CE0000099019A0B001000134300D1C7E01300C4
:101CF0000A00002800DBDEE020002900801A99415C
:101D00004B469860D96000229A5E002A00DA8CE780
:101D100053009C187D69E4002C190093A368E468C3
:101D20009A468C4200DD80E702D1834200D97CE7ED
:101D300008239C46BC443A8103976746009BB446FF
:101D40003E000EE08C4200D1C3E01E000023F25E94
:101D5000002A0BDB53009C18E4002C19A768E468E8
:101D6000BA469B18DB00EB188C42EBDD330066466D
:101D70009C464B461A806346039F1E80BB881BB25D
:101D8000002B00DA56E73A69EFF3108172B6136858
:101D9000002BFCD0BFF35F8F0123BE885B42BB806A
:101DA00036B23B69BFF35F8F00221A6081F310885F
:101DB000002E00DA3EE73B0008333A0099467D6981
:101DC00073009B19DB00EB189968DC688C460820CF
:101DD000115E4846002910DB009306E0A34240D084
:101DE0000023F95E3800002906DB4F007F18FF0052
:101DF000EF19FB68A342F1DD009B068000201E5E08
:101E00001980002EDCDA1700BB79002B00D115E712
:101E10000023BB713D000823F95E08354B1C00D13F
:101E20002FE77C690800A44603E035004B1C00D175
:101E300006E74B005B180A006146DB00CE18C95E5E
:101E400073881BB2002BF0DA01235B42DC17B3600E
:101E5000F4608242EAD029803B89100033803A81C5
:101E6000E4E7BB686345BBD9C6E7631C00D0F3E673
:101E7000FFE6534650461B699847002823D14B463E
:101E80001B883A693B81EFF3108372B61168002911
:101E9000FCD0BFF35F8F49467A880A803A697E801A
:101EA000BFF35F8F0021116083F31088BDE6844289
:101EB00000D8FFE6B9E60C4800F0AAFA009B019CA6
:101EC000C01861411CE753461A685B680092019391
:101ED00006E7824500D838E748E7C046C427002017
:101EE0003C700540F11B00100040054070B52E4CC1
:101EF0002569002D04D00A212C48FFF703FE70BD90
:101F00002B4E0321300000F079FAE660FFF710FB5A
:101F1000284B03229C46D02322701B061B680121FC
:101F20006370254B6044A3600F2380002061022072
:101F3000638063694942A180198002311986473163
:101F40001D83585218315A5275325C3999521832E1
:101F50000131995218320131995218320131995296
:101F6000083518329D520231183299521832013117
:101F7000995218320131995218320131995218325E
:101F8000013199521832013199520C4B0C49DC60E5
:101F900001303562FFF742FB01210320FFF706FB0A
:101FA000084B1D60A7E7C046B4100020F0270020B2
:101FB0000040054040000034FFFF1000C42700200F
:101FC000F11B00103860054000487047B410002035
:101FD000F8B51F0008AB1B7804001600002B08D1D1
:101FE00000F01EFA32003B00121A8B41002B00DA7F
:101FF00053E02269EFF3108072B61368002BFCD017
:10200000BFF35F8F0223E15E63694A005218D2007A
:102010009B18002937DB1A8862802269BFF35F8F23
:102020000025156080F31088069A9E60DF601A61B3
:10203000079A5A615A8801325204520C101C002A25
:102040001FD082B25880080410432669EFF310872E
:1020500072B63268002AFCD0BFF35F8FA2881A8064
:10206000A1802369BFF35F8F00221A6087F3108875
:102070000B4923788C4601329A40E36863441A6026
:10208000F8BD0120DDE72369BFF35F8F00221A60EE
:1020900080F3108801204042F2E70020F0E7C046BC
:1020A0003C20000070B501000469EFF3108C72B69B
:1020B00020680028FCD0BFF35F8F02200D5E4C69C2
:1020C00068004019C0002418002D37DB20884880A4
:1020D0000869BFF35F8F002606608CF31088E36009
:1020E00063880498013320615B0405985B0CA2604F
:1020F00060611A1C002B1FD093B228046280184321
:102100000A69EFF3108C72B61368002BFCD0BFF392
:102110005F8F8B8823808D800B69BFF35F8F0022D8
:102120001A608CF310880B7801329A40CB6808490A
:102130008C4663441A6070BD0122DDE70B69BFF372
:102140005F8F00221A608CF3108801204042F2E772
:102150003C20000010B543890A1493421ADD530055
:102160009B184269DB00D3180469EFF3108C72B638
:102170002268002AFCD0BFF35F8F5A88090494B20A
:10218000090C8A4208D00369BFF35F8F00221A60EE
:102190008CF31088002010BD8022120214435C8052
:1021A000012302698371BFF35F8F002111608CF3FB
:1021B0001088044902788C469340C268012062442A
:1021C0001360E8E73C20000040787047F0B5040059
:1021D0000D0006267642F717C64636196F4100B540
:1021E00082B08F4214D811D000F01AF932003B00AF
:1021F000121A8B41002B17DC002B47D0200029003E
:1022000000F04CF902B080BCB846F0BD8642EBD974
:102210000022002316001F0000F002F932003B00EC
:10222000121A8B41002BE7DD00F0FAF832003B0078
:10223000121A8B41002B0ADB00230193154B32004D
:10224000009315483B00FFF72DFF0028D6DB002345
:102250009C46B046114A124E736A9F4204D8B16A36
:102260004145CBD29F42C9D11168EFF3108072B6BD
:102270000B68002BFCD0BFF35F8F1368BFF35F8F39
:102280006146196080F3108820BFE5E7002AB5D0C9
:10229000CAE7C046C11B0010B4100020F027002080
:1022A0000040054070B504000D0000F0B9F880232F
:1022B000001969411B06994202D30120024940429C
:1022C000FFF784FF70BDC046FFFFFF7F70B50600BB
:1022D00000F0A6F8FA2204000D00002330000021CF
:1022E000920001F0E1FA8023001969411B0699422E
:1022F00002D3012002494042FFF768FF70BDC0468B
:10230000FFFFFF7FF0B5D6464F464646C0B50400F6
:102310000D0082B0EFF305878946002F0ED03449B7
:1023200000204B6AAB4203D38A6A0130A24226D313
:1023300002B0E0BCBA46B146A846F0BD2D4B984667
:10234000DB689A46434650461E7800F061F80B0061
:10235000514602000436B600715820008E1A29003A
:10236000801A99418F4211DC0ED020BF204A0020F4
:10237000536A4B45DCD3926A0130A242D8D25B1B30
:102380005A1E9341D8B2D3E78642EED900F048F8FE
:1023900022002B00121A8B41002B1ADB0023019321
:1023A000154B2200009340462B00FFF77BFE011ED9
:1023B0000FDD0F4B5A6A4A4517D39B6AA34212D3CB
:1023C0004046FFF7C7FE0A4A0020536A4B45AFD389
:1023D000D1E7074A0020536A4B45A9D3926A0120EE
:1023E000A242A5D2CBE74A45EAD120BFE8E7C046E2
:1023F00000400540B4100020C11B001010B5024A77
:102400000248FFF725F810BD7CBF0010901D00208A
:102410000300416A0A00986A596A8A42FAD17047F1
:10242000034B596A0A00986A596A9142FAD1704777
:102430000040054070B504000D00174A536A1900AA
:10244000966A536A8B42FAD13000190024184D4124
:10245000AB4216D813D0104B2A005B6A9D4203D9B9
:102460000D494B6A9342FCD3934207D10A4A02E0DA
:10247000516A994202D1916AA142F9D370BDA64234
:10248000E9D9054B5B6A1C005A1CEFD001220124DC
:102490006442E5175242E3E700400540064A536AAA
:1024A0009942FCD807D1044B02E05A6A914202D10A
:1024B0009A6A8242F9D3704700400540F8B504009B
:1024C00006200D0000F072F9002842D0364B374943
:1024D000E21853425A418023DB039C469205344B59
:1024E00062441A60334B1A6010000B689843FBD1AA
:1024F0002D4B314AE31859424B4180215B00490082
:102500000620995200F052F92900C00000F0B0FBFB
:102510000130C3091ED1402701226262A362266BEB
:10252000F30722D4E36A254B0620E51800232B602D
:10253000266300F03BF93900800000F099FB70231E
:10254000E26A5A400E3313402B601D4B2363032372
:10255000A364F8BD1B4A93421ED900231A4A1B4F9D
:102560006262A362266BF307DCD5194B144AE318A9
:102570001A60656AA36A0620AD01ED1800F016F92D
:10258000144900F075FBAD020100280000F070FB5B
:102590000021FFF74FFFC5E74006800E9F011A009C
:1025A0003F180300B9E7C0460080FCBF08C00040E8
:1025B00000E0004000F00040FC2700202C1000004C
:1025C00001030000FEFF0000FFFF0000C0FF3F000E
:1025D000303000004E0E0000F8B5DE464E4657463D
:1025E0004546E0B58B4605000A991800160000F034
:1025F0003FFB0A9B6C001F02314B64199C46A400F0
:102600006444636881469F4200D967602B1FDBB238
:102610009846C02342469B01E318012A2DD9802207
:1026200012011A60274BAD0059599A4600291BD157
:102630007301E026226853401E40802342465B011E
:10264000E3181E60012A2DD9802380229B01E31804
:1026500012011A6053464A4667605A51F0BCBB46A5
:10266000B246A946A046F8BD586900F001FB01300A
:1026700043001B18033BFDD2DAE75A46012ACED1AC
:1026800002321A60023AA3681A42FCD07301E026B3
:102690002268AD0053401E4080230A4A5B019246E7
:1026A000E3181E605A462168514003220A401A600E
:1026B00001225B469A40A3681A42FCD0C4E7C04698
:1026C00000800040941D0020F0B546464F46D64697
:1026D000C0B51F00334B44009C462418A40064443A
:1026E000636888461600FF2B02D880235B00636076
:1026F000031FDBB29A46C02352469B01E318012A0E
:102700002DD9802212011A60274B8500595999460C
:1027100000291BD17301E026226853401E4080230C
:1027200052465B01E3181E60012A2DD980238022C6
:102730009B01E31812011A6080235B0063604B4623
:102740005F51E0BCBA46B146A846F0BD586900F0FA
:102750008FFA013043001B18033BFDD2DAE74246F3
:10276000012ACED102321A60023AA3681A42FCD082
:102770007301E0262268850053401E4080230A4AE8
:102780005B019146E3181E604246216851400322D6
:102790000A401A60012342469340A2681342FCD0CB
:1027A000C4E7C04600800040941D0020014B80001B
:1027B000C0587047941D0020F8B5040020481D0043
:1027C00017000E0000F054FA0100380000F050FA33
:1027D000069B29041B0319432368002B1EDB194B9E
:1027E000194DE21853425A4180235B019C46120363
:1027F000164B62441A60164B1A6017002B689F43F1
:10280000FBD1144B2660E2182123A06013602368DB
:10281000002BFCDA0823E1601360F8BD3F23226837
:102820001340B342DBD1A3681B051B0D8342D6D1F5
:10283000EE22E368D20213408B42D0D1EDE7C046CE
:10284000001BB7000040FDBF08C0004000E0004092
:1028500000F000400430000010B580241C4BE4055B
:102860001C6000281AD001231A4C18431A4BDC6153
:102870001A4C44401C62596298628021144BC9056D
:102880001960174817490860E021C9041960002A37
:1028900007D18022144B12061A6010BD0E4BD8616E
:1028A000EBE753019B1A9B009A18802312015B04EB
:1028B0009A4209D213000D490B60074B5A608022DF
:1028C000094BD2051A60E8E7094B1A00F3E7C04646
:1028D00000B00540D3C007B0008005402D3FF84F41
:1028E000FCFF01000820014000A005409C270020BB
:1028F000FFFFFF008023024A9B000B43D362704717
:1029000000800540142310B50100188804331B888B
:10291000984710BD162310B50100188802331B8894
:10292000984710BDF8B54746CE4680B50F1E19D062
:1029300014239946043304000025012698464B468B
:102940001888434621681B88984701C4431E984154
:10295000013540420640AF42F1D13000C0BCB9461B
:10296000B046F8BD0126F8E7142370B504001888B6
:1029700004331B880D000549984703000020002CF4
:1029800001DB0130A04029009847C04655420000B5
:10299000AA23064A1B0113608D235B00D360044900
:1029A000044B19605368002BFCDA7047004002406A
:1029B00000B0FA00006002407047C04610B5014800
:1029C000FEF72EFDA0BF001070B5074D074EB542B3
:1029D00009D20024013E761BB60808CD9847230093
:1029E0000134B342F9D170BD08BB001044BB0010E4
:1029F000054B064A06491A60064A074B1A60100042
:102A00000B689843FBD1704700E00040BFCDFBFE50
:102A100008C00040FE7F3C0000F00040044BDB6C2F
:102A2000002B03D18022034BD2021A607047C046AC
:102A3000000011504C201150044A054B1A60054A01
:102A40001368DB018033FBD17047C046FFFFFF01F5
:102A500000F0004008C000404022034B9A675A67CC
:102A60001A67DA667047C04600F0014010B5FEF7FD
:102A70007DFD10BDF8B52B492B4C2C4D641AA610CA
:102A80003200302E00D930222800920000F07CFF66
:102A9000BC2C3ED8731C18000127254A302B3BD98B
:102AA0002F212C196407E40F891B052917D9302B16
:102AB00015D8002C33D0B300EA503F1B33199B00CC
:102AC0007908EB18C900C9181A605A6008338B429C
:102AD000FAD101233B421CD09F433E18731CB10026
:102AE0006A50302B15D09B00EA50B31C2E2E10D00C
:102AF0009B00EA50F31C2D2E0BD09B00EA50331D97
:102B00002C2E06D09B00EA50731D2B2E01D09B006B
:102B1000EA50084B9D60F8BD2F37BF1BC0E730005F
:102B2000CBE7C04600010010C001001000000020EB
:102B3000C101001000ED00E0002310B5294C82B067
:102B4000A367FFF725FF0122274B1A60636C012B57
:102B5000FCD10322254B1A60224A936B012BFCD136
:102B6000013300930121224A22480433FFF724FE57
:102B7000052301210093204A2048FFF71DFE002273
:102B8000022104201E4BFFF79FFD0022012105209A
:102B90001C4BFFF799FD0022002107201A4BFFF77D
:102BA00093FD002200210820174BFFF78DFD8023A5
:102BB000DB000093002200210920134BFFF70CFDDE
:102BC0000022104B00210620FFF77EFD0420FFF7B6
:102BD000EDFD0E4900F04CF801000020FFF78AFEE1
:102BE00002B010BD008000403CB0004030B000405A
:102BF000002F685900800240008C864700C00240C8
:102C0000001BB70040597307006CDC0240420F0004
:102C100001480421014B1847D0100020252900103D
:102C2000124A936F9B0815D29066D166002905D091
:102C3000FFE7FFE7FFE7516F106F704704B5802192
:102C40000906C2175140002800D0C84308F01CFFF5
:102C5000002104BDF0B5146E556E576F166FFFF767
:102C6000E3FF1466556657671667F0BD000000D095
:102C7000114A936F9B0813D210665166002905D044
:102C8000FFE7FFE7FFE7516F106F704704B50028BB
:102C900001D00020C04308F0F7FE002104BDC0466B
:102CA000F0B5146E556E576F166FFFF7E5FF14669B
:102CB000556657671667F0BD000000D094464A4A33
:102CC000926F9208624601D228E0C046F0B5464EA7
:102CD000346E756E776F366F00F020F89446424A76
:102CE00014665566576716676246F0BD94463E4ABD
:102CF000926F9208624601D254E0C046F0B53A4E57
:102D0000346E756E776F366F00F04CF89446364A25
:102D100014665566576716676246F0BD002B24DBC4
:102D200011D000293EDA00B5C943404200D101313B
:102D300000F038F8C943404200D10131DB43524230
:102D400000D1013300BD002AEBD1002801D10029B8
:102D500005D00020C90FC90701D1C043410800B503
:102D600008F072FE0022002300BD00B500290ADB36
:102D7000DB43524200D1013300F014F8C943404212
:102D800000D1013100BDC943404200D10131DB43D4
:102D9000524200D1013300F005F8DB43524200D12A
:102DA000013300BD002923D1002B18D1002A0CD0FB
:102DB000BC460D4F38667A6600210023FFE7FFE727
:102DC000FFE77A6F386F67467047002801D00748E1
:102DD000010000B508F038FE0022002300BD02000B
:102DE0000B00002000217047000000D0FFFFFFFF14
:102DF000002B00D0BFE0130C28D1002AE7D080B40C
:102E0000114F39667A66FFE7FFE730B4040C7B6F39
:102E1000396F1B0423433B667A66FFE7FFE7FFE752
:102E2000C04684B27B6F3D6F1B0423433B667A66CA
:102E3000FFE7FFE7C04600232C042D0C7A6F386FA4
:102E400000196941B0BC7047000000D0F0B594464D
:102E50000025140E01D112020835140F01D1120100
:102E60000435940F01D192000235D40F01D15200E4
:102E70000135D40B0134254F7C66254C3C660E0C85
:102E800093B2FFE7FFE7FFE73C6F6643360C77033B
:102E9000BE467343DF0B5B04C01AB941130C734386
:102EA000DB18C91ACE086643360CB64493B2734396
:102EB0001F0F1B01C01AB941130C73431F0B1B05D5
:102EC000C01AB941860D8F023E436643360C092D68
:102ED00024DB520A7243801A7703460A6643360C93
:102EE00016235B1BDE40DF40BF1964466643821B2E
:102EF0007046043506330100D940A840C01900D3FC
:102F00000131A24206D20023F0BD0000000000D033
:102F1000FFFFFFFF121B0130F3D3F1E709277F1BEF
:102F2000FE406446A2B27243801A00D20139220CDC
:102F30007243130C1204821A99410B007046043537
:102F400013370100F940A840801900D30131002B4C
:102F500002D1A2420AD2F0BD013000D30131121BCE
:102F6000FAD2013BF8D1A24200D2F0BD013000D329
:102F70000131121BF7E7F0B51C0C00D080E00CB457
:102F800000251C0A04D11B02160E33431202083519
:102F90001C0B04D11B01160F3343120104359C0B8B
:102FA00004D19B00960F334392000235DC0B02D113
:102FB00092185B4101351C00971864410134464F5B
:102FC0007C66464C3C660E0CFFE7FFE7FFE7C04619
:102FD0003C6F6643360C7703BE4697B27743C01BFF
:102FE00000D20139C01B00D201399FB27743C91BFF
:102FF000C91B170C77437E04FF0B801BB941CE0819
:103000006643360C0C2D33DBB644120B1F053A43D6
:103010001B0B97B27743C01B00D201399FB2774395
:10302000C91B170C77433E043F0C801BB941860D2A
:103030008F023E43664329277F1BFE400C3D7746A7
:10304000AF40BF1930BCA2B2ABB272437343801A17
:103050009941220C7243130C1204801A9941020008
:103060000B000137001BA941F9D2781E0021F0BDE9
:103070000C277F1BFE4077467F0BAF40FF19E0E730
:1030800000245D1C07D0144F7D663966FFE7FFE71B
:10309000FFE7FFE73C6F95B29EB265436643401B76
:1030A000B141150C1E0C6543664336042F0C3E439C
:1030B0002D04401BB141994204D202000B002000B4
:1030C0000021F0BD01D19042F7D3801A994101341B
:1030D0009942F2D3F6E70000000000D0FFFFFFFFA7
:1030E00048404140484018B41B4B5B68FC46019384
:1030F00008BD04DF7B33001018B4174B1B68FC4677
:10310000019308BD00DF853300109446134A926F87
:10311000920809D2624618B40F4BDB68FC46019353
:1031200008BD0CDF3D3600100C4AF0B5146E556E2C
:10313000576F166F6246FFF7EEFF084A1466556632
:1031400057671667F0BD18B4034B9B68FC460193A4
:1031500008BD08DFE1340010D8120020000000D0C4
:10316000FFB550404240504059404B40594000E06C
:10317000FFB5154F4C00640D03D0BC4204D10C03C5
:1031800014D80020090D09055C00640D03D0BC4271
:1031900004D11C030AD800221B0D1B0501264B403D
:1031A00009D44B4003D58B4200D18242FFBD9942E6
:1031B000FCD19042FFBD0B43DB1803431343F5D012
:1031C000C9434918FFBD0000FF07000000B5FFF725
:1031D000CFFF804100BDC04600B5FFF7C1FF01D958
:1031E000002000BD012000BD00B5FFF7B9FF804100
:1031F00000BD012040054A00121804D85A001218D8
:1032000001D80020704701207047000000210028ED
:1032100005D17047C1174840401AFAD0C90713B505
:10322000064B1B6898470CBC441CA2401005120BAF
:103230000349091B09051943114310BDEC27002060
:103240001F04000010B54C00620D8023D218DB0073
:10325000D21A5B057E2A10DD9E3A13DACC170903D9
:10326000490819435242D140640001341532202AE2
:1032700005DAD0400843604310BD002010BD084669
:10328000604310BDC80FC018013810BD18B4044BFE
:103290005B6AFC46019308BD24DFED370010000097
:1032A000D8120020132370B51D78012D19D014DD1C
:1032B0001F48FFF72FFB06001E48FFF72BFB1E4C95
:1032C00080223100200000F05FFB022D2DD01B4832
:1032D000FFF718FB1A4B186070BD1A4B164CA3640D
:1032E000F5E7184B144C23606360A360E36023612F
:1032F0006361A361E36123626362A362E3622363A8
:103300006363A363E36323646364A364E364236587
:103310006365A365E36523666366A366E366236767
:103320006367A367E367A364D1E7064BA364CEE7B3
:103330005344000053460000D81200204C330000D4
:10334000EC2700204933001007B5604601880A0ABF
:103350000230DF2AFAD1C9B2820804D30288408839
:103360000004104300E00068014A5050039007BD7C
:10337000D81200200FB403BC0CBCF0B50124E40744
:10338000634000E0F0B50C0DCF0F661E3605891BBB
:10339000640503D3C943404200D30131640D03D017
:1033A000661CF60A07D0E41B00207F00791C890701
:1033B0008912803C24031D0DDF0F6E1E36059B1BFA
:1033C0006D0503D3DB43524200D301336D0D03D0AF
:1033D0006E1CF60A07D0ED1B00227F007B1C9B07AA
:1033E0009B12803D2D032F1B661B58D4A446202E14
:1033F00046DA20371400BC401D00BD40F240334186
:103400002A4380185941CB0F05D0C943C04300223D
:1034100064425041514162464D0D28D10D0D07D1F6
:1034200000281FD0241940414941013A0D0DF9D01F
:10343000640006D3013000D30131002C01D14008D3
:103440004000013A0BD4941CE40A04D11205114443
:10345000DB071944F0BDD907204B194300E0D90719
:103460000020F0BD0029DDD1002CDBD1F0BD013200
:10347000C6074008CD0728434908002EE1D0D9E708
:103480003C2E29DA203E40371400BC4000D00124F5
:10349000F24014431A00BB401C43D317ACE7AC46C0
:1034A000202F08DA20360400B4400D00B540F84063
:1034B00039412843A5E73C2F0CDA203F4036040071
:1034C000B44000D00124F84004430800B1400C434C
:1034D000C117EAE710001900002494E70000F07F0C
:1034E000F0B50C0D661E3605891BE60A6405640DF1
:1034F00002D0651CED0A04D0002001210905803CA2
:103500002403A4461C0D671E3F05DB1BE70A640568
:10351000640D02D0651CED0A04D0002201231B05B6
:10352000803C24037740644497B484B296B27443D9
:10353000070C7E43150C6F4380B26843361802D3E4
:10354000012000043F183004350C00197D418446E9
:1035500088B29AB250430C0C62431F0C7C438EB26B
:103560007E43921902D301263604A4191604170CBF
:103570003618674101BC81B29AB25143040C6243D0
:103580001B0C5C4380B25843121802D30120000484
:1035900024181004130C401863412D185E410020BC
:1035A000474106BC88B293B258430C0C6343120CDB
:1035B000544389B251435B1802D3012109046418B2
:1035C00019041A0C091862416D1856410020474130
:1035D00018BCF902720D1143F0026A0D1043ED029E
:1035E0000A0D03D16D1940414941013B124E9B1B0D
:1035F0007600B3420ED26D0007D301300026714130
:103600006646354301D1400840001B05C918E40750
:103610002144F0BD0BDA013306D1013004D1013170
:103620004F0D01D04908F2E7E1070020F0BD013657
:1036300031050020EBE70000FF030000F0B51C0D92
:10364000671E3F05DB1BE70A6405640D02D0661C9C
:10365000F60A04D0002201231B05803C2403D02558
:103660002D060026F6432E661E096E66CE0FF6194D
:10367000B44649004F0D02D07E1CF60A03D000204C
:103680000021403F3F033E1BB600B444013F7F058D
:10369000C91B49082E6F013676089C02950D2543FB
:1036A0007543ED137543AD1301356D10F603761BAD
:1036B0000CB4CC02450D2C43A2B2B3B25A43270C32
:1036C0007B43350C6F43A4B26C431B1902D3012416
:1036D00024043F191C041D0CA4187D4124196D41BC
:1036E000009A91B2ACB26143170C7C432B0C5F4340
:1036F00092B25A43A41802D301221204BF18220422
:10370000230C52187B41019C6C431B19520ED901AA
:103710000A434401A01A81B2B2B2514303145A437E
:10372000360C734387B27743D617D21900277E41F0
:1037300036049B191704160C7F185E417316ED189A
:10374000F301002680337541A90F06D16400690A90
:10375000E8055B0A184309D22FE004229444803321
:103760007541A90AA8059B0A184326D3404149413F
:103770002404009A019B0D005543641B4343E41A43
:1037800095B286B27543170C7E43030C5F4392B229
:103790005A43B61802D301221204BF183204330C64
:1037A00052197B4152429C41002C02D4002201302C
:1037B00051414008CA071043490802B06246D70782
:1037C0009210084BD218084B9A4203D2120589185E
:1037D000C919F0BD0020002A01DC3900F0BD013319
:1037E0001905F5E7FD030000FE070000002200B503
:1037F000203200F004F8080000BD000000220B1584
:103800000AD410B5944600F031F81414013400DAEB
:103810000021CB17144C2047002000217047624440
:10382000343A0CD40C2A07DA0400914090405242FA
:103830002032D440214310BDD843D94310BD20329B
:1038400007D40C469440524220321141D0402043CC
:1038500010BD0800C917203203D452422032104153
:1038600010BD1800190010BD1F3800100A0DCC0F34
:10387000531E1B05C91A520503D3C943404200D346
:103880000131520D03D0531CDB0A07D0121B00205C
:103890006400611C89078912803A1203014BD21A15
:1038A00070470000FF03000051434343C9188C4692
:1038B000110C83B24B4310B4040C614392B280B23A
:1038C000504362431C041B0C001910BC59411304E3
:1038D000120CC0185141614470470000132310B509
:1038E00012481C78FFF716F80100012C0AD003DDFE
:1038F00080220F4800F048F80E48FFF703F80E4BFF
:10390000186010BD0A4C5422200000F03DF80B4B0B
:103910006365A365E36523666366A366E366236761
:103920006367A367E3672362E361E5E7534600004B
:10393000D81300204C330000EC2700204139001040
:1039400007B5604601880A0A0230DF2AFAD1C9B2F7
:10395000820804D3028840880004104300E0006815
:10396000014A5050039007BDD8130020014804219C
:10397000014B1847E010002025290010014B1B685F
:1039800018470000E0100020014B5B68184700005A
:10399000E01000207047C046F8B557464546DE4661
:1039A0004E46E0B598460A9B06009A460D9B0F00CE
:1039B000934615009B0710D10B9B0C9A93420CD297
:1039C00013005C460B9A9D1A5D4422004346013465
:1039D00039002020B047A542F7D10B9C6319002C79
:1039E00009D01D0053462A1B013C185D390043468F
:1039F000B047002CF6D10D9B9B070ED55B46EC1A09
:103A00000C9BA34209D999462A004346390020203D
:103A10000134B0470135A145F6D82800F0BCBB46BB
:103A2000B246A946A046F8BDF0B54F464646D64632
:103A3000C0B584B098460EAB1B7894469946129B4D
:103A40000D9C109F119E9A0724D4002E6AD1BC426F
:103A500020D201221A409246202C00D1D2E00C9AAA
:103A6000551E302201E0202C30D001342A55A742C7
:103A7000F9D85246002A0DD0B4420BD20C9A551EEA
:103A80003022202C02D126E0202C63D001342A558C
:103A9000B442F9D1DA0634D55A0564D4002C5ED18B
:103AA0000F9A102A00D197E0022A00D1A8E0302214
:103AB0000C9C227001244A46002A5ED15A0700D489
:103AC00083E02B220C9D2A5501341CE05246002A2B
:103AD00002D0202E3ED92024DA0614D55A0512D45D
:103AE000202F00D1A1E0202E3DD120261F2234001E
:103AF0000F9D102D00D18BE0022D52D030250C9F50
:103B0000BD54202CD7D103930C9B624600930296A0
:103B100043460194FFF740FF04B0E0BCBA46B1460B
:103B2000A846F0BD012215001D40AA461A4229D020
:103B30004A46002A39D10C321A4236D1BC429BD2B5
:103B4000202C00D08BE710221A40202EC3D8002A48
:103B5000A2D1D8E72024DA06D5D55A0503D4A74246
:103B600025D0B44223D00F9A102A25D0022A14D08F
:103B7000202CC8D022000134C0E72D220C9D2A55EC
:103B80000134C0E7BC4200D384E7202C00D066E7B4
:103B900010221A40002AE0D1B5E7202CB3D0220031
:103BA000013462250C9FBD54E2E7013EC6E7621E68
:103BB000012C00D174E79BE79A0616D4202CA2D0E2
:103BC00078220C9D2A550134D2E71A079BD5202272
:103BD0000C9D2A55013496E79A060FD478220C9C46
:103BE000227030226270022465E7202C00D18AE71F
:103BF00058250C9A121915700134B9E75822EEE7CE
:103C00006222ECE7102255461A40002D9FD1C1E7F1
:103C1000023C9D0604D478250C9F3D551400A9E76D
:103C200058250C9F3D551400A4E71F2260E7C046AD
:103C300010B5002800D110BD01F092FBFBE7C04693
:103C40000B0010B5002802D049681B68984710BDCA
:103C5000F0B557464E464546DE46E0B599B0824639
:103C6000894690460893229A239B10001900FFF77B
:103C7000C0FA002800D0CDE0229823990122D94B28
:103C80005242FFF7B1FA002800D0C3E022982399EE
:103C90000122D54B5242FFF799FA002800D0B9E033
:103CA0002298239900220023FFF790FA002800D0E1
:103CB000F1E1229E239F8023269ADB001A400D9279
:103CC000269A1A4201D1062324938023269A1B01A7
:103CD0001A403B0093460996334300D0B3E0002AD4
:103CE00000D0C2E1002300240A930B940023042592
:103CF0000993259B0024AB4200D95C1B0223269A22
:103D00001A400C92269A134203D06B426B415B42DD
:103D10001C40099B002B07D00A9A0B9B30003900EE
:103D2000FFF7F3F906000F002298239900220023E1
:103D3000FFF74CFA002803D0802109067B181F00EA
:103D4000269AAA4B009601971340089E0493249B41
:103D500003940293424633004946504600F0AAF9C4
:103D60000400002D67D02020269A49460240130007
:103D70005A4253415B42621C18400A9233002200AF
:103D80004530D047099A6F1ED317D4185C40D30F23
:103D90009B46002501E0202D13D008AA94461F233E
:103DA000200063440A2101355E19FEF761FF3031BE
:103DB000317020000A21FEF75BFF26000400092E67
:103DC000E9D805230693002304930A3303935B4643
:103DD000089E029310AB0A9A00934946330050465E
:103DE00005970195FFF720FE0C9A0400002A22D0C7
:103DF0004246851A259AAA421DD9B0465746160052
:103E000022004346494620200135B8470134AE42DE
:103E1000F6D810E0269B42460493259B494603931F
:103E2000249B50460293229B239C00930194089B61
:103E300000F040F90400200019B0F0BCBB46B246C7
:103E4000A946A046F0BD6A4B78009C46400D6044F0
:103E5000FFF7E0F9674A684BFFF775F9674A684B67
:103E6000FFF74AF9674A3B031B0B1A4304000D0096
:103E700009981100644B0022FFF735F9634A644B3F
:103E8000FFF761F902000B0020002900FFF734F969
:103E9000FFF7D8F90990FFF7BDF95E4A5E4B0400C1
:103EA0000D00FFF750F900225C4BFFF725F9FFF7F3
:103EB000C9F95B4A5B4B29000C902000FFF743F9DE
:103EC00004000C980D00FFF7A5F9574A574BFFF770
:103ED0003AF902000B0020002900FFF704F9040062
:103EE0000D0002000B000A940B95FFF72CF904005B
:103EF0000D000A980B9902000B00FFF7FDF8002255
:103F00000E900F914A4B20002900FFF7FEF8002287
:103F1000484BFFF7F1F802000B0020002900FFF7E3
:103F2000F4F80022444BFFF7E7F802000B002000F2
:103F30002900FFF7EAF80A9A0B9B0D008021040084
:103F4000C9050020FFF7CFF802000B002000290070
:103F5000FFF7D2F802000B000E980F99FFF7D5F883
:103F60000022284BFFF7C8F8344B0C9C9C46644455
:103F700023050022FFF7E7F804000D0002000B0004
:103F8000300039000A940B95FFF720F900285DD125
:103F900023002A00C625099963318D42AD41594657
:103FA0006D420435002900D1A3E6134363D03000ED
:103FB0003900234A234BFFF70FF9002807D00022CE
:103FC00030003900204BFFF701F9002853D1249B22
:103FD000002B00D18DE60D9B5A1E9341249AD31AD3
:103FE000249386E6FFFFEF7FFFFFEFFFFFF7FFFF62
:103FF00001FCFFFFFB799F501344D33FB3C8608B94
:10400000288AC63F0000F03F0000F83F61436F631D
:10401000A787D23F71A379094F930A400000E03F80
:104020001655B5BBB16B0240EF39FAFE422EE63FA2
:1040300000002C400000244000001840FF03000056
:104040002D431CEBE2361A3F80842E41099B00224F
:10405000013B09932000164B2900FFF756F80A0090
:10406000010003000A910B9294E7002300240A93B5
:104070000B9400230993249A099B9A4214DDD31AC6
:10408000013B24938023269ADB001A43002300255A
:10409000269209932DE6802212069446229B1E004A
:1040A000239B63441F0006E600232493EAE7C046EF
:1040B00000002440F0B54546DE464E465746E0B582
:1040C00095B08B46904699461E9A1F9B0A90190000
:1040D0001000209DFFF78DF8002800D0B0E11E9859
:1040E0001F990122C74B5242FFF770F8002800D0F9
:1040F00037E11E981F990122C34B5242FFF774F813
:10410000002800D0A7E01E981F990022BF4BFFF7A0
:104110006BF8002800D088E01E981F990022BC4B45
:10412000FFF754F8002800D07FE01E981F99002266
:104130000023FFF74BF8002800D0FAE000230B9390
:104140008023229C229ADB001C401A4200D102E10B
:10415000092D00D87EE106A98C462C0017220023E9
:104160003021093C62440133D154EF1A202B00D195
:1041700032E1A342F7D10022A44B069207931E9886
:104180001F99FFF75FF80500FFF744F802000B00E6
:104190001E981F99FEF7A7FF069A079BFEF7D3FF0D
:1041A00008900991FFF772F80600FFF72FF8020058
:1041B0000B0008980999FEF796FF0022954B08908E
:1041C0000991FFF711F8002800D1D2E00136300044
:1041D000FFF71CF8069A079BFEF7FEFF002801D0A8
:1041E00000260135AA46002F00D098E02800FFF7EE
:1041F00011F802000B001E981F99FEF774FF854B03
:10420000002206000F00FEF7E1FF0CAB9A460028E3
:1042100045D10022300039007E4BFEF7E5FF002833
:104220003DD1EB073BD5013539E0229B4246049353
:10423000219B594603930A981E9B1F9C029500934D
:1042400001944B46FFF704FD15B0F0BCBB46B246E7
:10425000A946A046F0BD229B5B0767D403226E4BA4
:1042600022990192039121990291009342464B4673
:1042700059460A98FFF790FBE6E706AA94461723EB
:10428000280063440A2101341E19FEF7C9FC3031AD
:10429000280031700A21FEF7C3FC051E76D0202CC1
:1042A000EBD10323229A1340012B1DD1219B002B1C
:1042B0001AD00B9B002B00D0BBE0229A0C33134288
:1042C00000D0B6E0219BA34200D887E006AB9C4615
:1042D00017223023624404E02199013413558C42A3
:1042E00059D0202CF8D12024229B01940393219BA8
:1042F00002935346B9E706AA944617230A2163445A
:10430000300001341D19FEF7B3FC30312970300044
:104310000A21013FFEF7ACFC092E46D90600202CED
:10432000E9D155460CAB20249A46B8E704223B4B12
:1043300096E71E9A1F9B00200021FEF7D4FE012362
:104340000B938023229C229ADB001E901F911C401D
:104350001A4200D0FCE60022314B06270692079352
:104360000DE7229B0393219B0293042301932D4B82
:104370007BE7002208980999264BFEF727FF0028C3
:1043800000D02FE7002E4FD101362BE70323229ACE
:104390001340012B68D0202CA6D00B9B002B1FD0E4
:1043A0002D235246135501349EE75546202CB9D093
:1043B00030223B19002F4BD0172006A901340918D1
:1043C0000A55202CAED09C42F6D10CAA92462E2241
:1043D00051465C1CCA5462E72024CCE6202C83D0D2
:1043E000229B5B0708D4229B1B0700D47CE7202379
:1043F00052461355013477E72B23524613550134A7
:1044000072E7C046FFFFEFFFFFFFEF7F65CDCD41B5
:1044100065CDCDC10000E03F58C0001050C0001075
:1044200080842E4160C00010F30700D4DAE6013624
:10443000D8E6219B013B2193A34200D946E7AAE796
:10444000229B0393219B029303230193084B0CE7C8
:104450002300BAE7074BEA009B185C681B682F0033
:104460000693079400248AE6219B002B93D020E733
:104470005CC0001008C20010F0B54546DE46574645
:104480004E46E0B5A1B01D002A9B90460B93D04A42
:10449000D04B83468A461A60002900D1A4E100234C
:1044A00028789946002800D1A6E1CB4B5E460993B7
:1044B000CA4B4C46D34647460D930AE0631C9846C8
:1044C00022003B005946B04744462878002800D1D6
:1044D000CDE001352528F1D108239A46043B9946C1
:1044E000023B9846013B00229C460C942878691CAC
:1044F0000300203BDBB2102B03D8099C9B00E35840
:104500009F460300303B0C9C0A92092B7FD9002365
:1045100098462A2800D1C1E000239A462E2800D1CF
:1045200090E00300683BDBB2122B1ED8AC4A9B0024
:10453000D3589F4663460D001A43D7E743460D0004
:104540001A43D3E74B460D001A43CFE710230D0063
:104550001A43CBE753460D001A43C7E780235B009D
:104560000A9A68781A430A9201310D0067280AD81E
:104570002428A3D90300253BDBB2422B9ED80D9AF9
:104580009B00D3589F4601006939C9B20F2995D8BD
:1045900001238B409C46934B994663464A46134001
:1045A0000C9362464B461A4200D05EE20A2900D1C3
:1045B00024E1072982D10B9B02CB9846002900D128
:1045C0009BE121200A9A0243914610AB9C461F2290
:1045D0000F23404662440B959C46A04615000C9B59
:1045E0000A9002E0202B0CD0110064460C40200001
:1045F0003730092C00D807380133E8540A090F294D
:10460000F0D80C930A9B44460B9D984685E1002305
:1046100098460A9B45469C4600E00131AB005B1979
:104620005B001D180878303D0300303B092BF4D99E
:1046300063460A930023A8469A460D0001312E28AE
:1046400000D06EE780200A9AC00002430A9230220E
:104650005242944668780B0084446246092A00D886
:104660002EE12A2800D13DE10D00013159E7DA465B
:10467000A146B346B846C84503D801235B4243442C
:10468000994643464A4651460020D847200021B06B
:10469000F0BCBB46B246A946A046F0BD0B9B04CB7E
:1046A0009046002A04DB68780B930D00013133E754
:1046B0000A9A283802430A92424652426878904643
:1046C0000D000B93013127E7672800D1C7E1472888
:1046D00000D114E2452800D116E20A9A072104927B
:1046E00042460B9B0392073352468B4319000292BA
:1046F0000CC93000009201930B9122003B005946F7
:10470000FFF7A6FA0400E0E680239B0028E768781C
:10471000682800D11BE280230A9A01311A430A92C9
:1047200023E768786C2800D109E280230A9A5B00AD
:104730001A430A92013118E7462800D18AE10A9A01
:104740000721049242460B9B0392073352468B4348
:10475000190002920CC93000009201930B912200C3
:104760003B005946FFF7A6FC0400AEE6631C9846E2
:1047700022003B0059462520B0474446A5E60B9B46
:1047800004330C93631C99460A9B9A0700D4E7E113
:104790000B9B2200187859463B00B04743464444DF
:1047A000012B00D8B8E22B00B84625005F464C46E6
:1047B000994622004346013439002020B047AC42DC
:1047C000F7D12C00BB464D4647460C9B0B937CE62D
:1047D000794400109427002068C00010F8C0001031
:1047E000ACC0001041900000DC4B28789B460023B1
:1047F0009946002800D058E600243CE70B9B02CBEA
:1048000012930B789C4618005346002B00D09CE076
:10481000002812D002235B420133994689444A465C
:104820000B008946110001E08B4203D05A78013316
:10483000002AF9D149465B1A0C938023DB00994684
:104840000A9A13400B934B461A4204D00C9B5345D3
:1048500001D953460C93022399460A9A13400A93AE
:104860004B46134200D1B5E16346002B00D197E1DE
:104870000B9B002B00D14CE1D1460B1B9A462B0021
:10488000A1444D462200B9465F469B4609E04B468F
:104890003900541CB0475346185D002800D158E138
:1048A00022009542F3D15B46BB464F46A9461D0008
:1048B0004C460A9B002B00D072E1129B0B9304E63E
:1048C00055460A9AA9004919490001330D1818786C
:1048D000303D010030390929F4D9AA460A921D0059
:1048E000591C1EE60B9BA87804CB0235D143C9178F
:1048F0000A4092460B93691C13E60A9B10211A008A
:104900008A43100011310843814680201A00C000FC
:1049100002401100034200D157E64B46082206939D
:104920005346059208320392002204930C9B029294
:10493000019318AB2200009359463B003000FFF76B
:1049400073F8434604000B93BFE5002800D174E7D9
:104950005346013B60E7622800D1DFE1582800D1CF
:10496000ECE10A9980230A00DB001A4010000A00DB
:10497000194200D1BDE111239A430C920C9A802375
:1049800011009B0019408C461A4200D046E180235A
:1049900011005B00194089460B9904310A911A42B3
:1049A00000D08FE213005B0600D59EE113001B06CA
:1049B00000D426E30B9B00229B5ED9175A184A406D
:1049C00092B2D90F0B91002B00D177E2100010AA00
:1049D000944642461F23129252466344AA461494B8
:1049E0004D460400B946B0461F00139201E0202D49
:1049F0000FD020000A21FEF73BF901357E19303136
:104A0000317020000A21FEF733F926000400092E38
:104A1000EDD8129B46469846139B4F46A9465546ED
:104A20009A46149C0C9B0693434605935346049365
:104A30000A2303930B9B02934B46019318AB22006E
:104A4000009359463B003000FEF7EEFF0A9B04003E
:104A50000B933AE520230A9A1A430A926FE68023C1
:104A60000A9A1B011A430A9237E6782800D0AFE170
:104A70000A9880230200DB001A401100020018424D
:104A800000D1D0E20D239A43100003330A93802310
:104A900002009B001A409446184200D0ACE18023EB
:104AA00002005B001A4091460B9A04320C921842A5
:104AB00000D04AE2430600D493E20B9B1B78089394
:104AC000002B00D04BE110339843002900D146E180
:104AD0000023994643460593534604930A9B069048
:104AE0000393002302934B46019318AB22000093DB
:104AF00059463B003000FEF797FF040065E680232F
:104B00000A9A1B011A430A9220230A9A1A430A920C
:104B1000E3E50B1B9A460C9B99462B005D469B4692
:104B200022003B002900B04753460134185D00289D
:104B3000F6D14B460C935B46AB461D00B9E6C0234D
:104B40009B000A9AA8781A430A92E91C0DE5C02333
:104B5000F7E75D46BB464F46ABE6C04695390010C9
:104B60004346012B00D8D1E0631E4344B9461D00E3
:104B70005F46A2468B4622004B4601343900202076
:104B8000B047AC42F7D15D46BB464F46A1465446BE
:104B90000B9B4A46187859463B004444B04714E6FC
:104BA0000C9BA146984500D887E64444E41A2B00A4
:104BB000B84625005F464C469946220043460134DC
:104BC00039002020B047AC42F7D12C00BB464D46FF
:104BD000474672E60C98804500D81CE243461A19F5
:104BE000131A99462B004D46B9465F469B460C91D9
:104BF00022004B46013439002020B047AC42F7D1A7
:104C000043460C9901330C930B785D469C46BB469A
:104C10004F466046002800D02AE64EE607220B9B4E
:104C200007339343013294469C4462460B920CCB6B
:104C3000D90F0A91110019435FD0D9171191109122
:104C400051400E91119959400F910E980F99109A59
:104C5000119B801A99410E900F9110AA002394463F
:104C600042469946129252461F336344B046AA46C2
:104C70004E461494B9460E9C0F9D1F00139201E0FE
:104C8000202E10D0200029000A220023FEF72EF843
:104C9000013630322B00BA550D0022000400002BE3
:104CA000EED1092AECD8129B4F46B14646469846AB
:104CB000139B0E940F9555469A46149C0C9B069395
:104CC00043460593534604930A2303930A9B029396
:104CD0004B46019318AB2200009359463B0030002D
:104CE000FEF7A2FE0400FFF7F0FB0B9B1B781A00F7
:104CF00067E610239A430C9240E600239946002869
:104D0000DCD1002200230E920F93A6E70B9B22001A
:104D1000187859463B00B0474C4656E50A98802320
:104D20000200DB001A401100184200D15FE10200CE
:104D30000D239A430B3B10000A93A8E60A988023A0
:104D40000200DB001A4011000200184200D166E1A7
:104D50000D2320209A43033310430A9397E66123DF
:104D6000820600D54123DBB20A3B0B93434610A9D0
:104D70001F228C46129353466244AA4614941597F8
:104D80004C468046B14617000A9E089D139308E0E2
:104D90003033DBB201343B55B5420ED3202C0CD05E
:104DA000050031002800FDF763FFCBB20929EFD9D8
:104DB0000B9A94466344DBB2ECE7129B404698465C
:104DC000139B4E465546A1469A46149C159F81E674
:104DD0006F2800D037E10A990C230A009A438023F8
:104DE00010000A00DB001A4011000A9A1A4200D093
:104DF00021E108230A934AE60B9AFA3BFF3B07326C
:104E00009A4301339C46944463460B93136852685B
:104E10000893134312921A1E05D1002310329946AB
:104E20009043002941D16122810600D54122D2B2AE
:104E30000A3A0C924246002310A9139252468C461D
:104E4000994614921F330A9A6344AA4615941796FA
:104E50004C469046B946089E1F00129D16900AE0E7
:104E60003032D2B2002301343A55AB4211D0202C5B
:104E700011D006000D004246002330002900FDF746
:104E800035FFD2B2092AEBD90C9B9C466244D2B2C0
:104E9000E8E7B045EBD9139B55469846149B4F461F
:104EA0009A46A1461698179E159C4346059353466D
:104EB00004930A9B06900393002308E7002800D080
:104EC000B0E584E50B9B1B68DA0F1100002B00D1C5
:104ED00094E0DA179818504010AA914642461F23D2
:104EE000129252464B44A046AA4614970400B1467B
:104EF00065461F000B91139201E0202D0FD020007A
:104F00000A21FDF7B5FE01357E19303131702000E0
:104F10000A21FDF7ADFE26000400092EEDD8129BF4
:104F2000444698460B9BAC461900139B55464E468B
:104F30009A46149F0C9B0291069343460593534651
:104F400004930A230393634677E50B9B1B6808933E
:104F5000002B03D110339843002937D161238206F7
:104F600000D54123DBB20A3B0B93434610A9894687
:104F70001F22129353464A44AA46B14614941597E9
:104F8000644680461700089D0A9E139308E030335C
:104F9000DBB201343B55B5420ED3202C0CD00500BA
:104FA00031002800FDF764FECBB20929EFD90B9A36
:104FB00094466344DBB2ECE7129B40469846139B51
:104FC00055464E469A46A446159F149C4346059363
:104FD000534604930A9B069003930023029363466F
:104FE00082E5030613D50B9B1B88089368E5020036
:104FF0000C239A430A3B10000A9348E5002899D1F4
:105000006AE70B9B1B68D9175A184A40D9E40B9BD7
:105010001B68089354E5030001330C93F9E5202342
:105020000A9A1A430A920C230A9A00219A430433DB
:1050300010000A932BE50A9B0C9308230A930D2377
:105040000C98984323E510230A9A9A430C926928F6
:105050000AD10A9980230A00DB001A4010000A00D6
:10506000194200D18AE486E40A991C230A009A4373
:10507000802310000A00DB001A4011000A9A1A422D
:1050800002D10A230A9302E50A230A93D7E7C0460E
:1050900000B585B0039101210290009303481300ED
:1050A0004A4202A9FFF7E8F905B000BD413C0010F3
:1050B00010B5094A0300146884B0002C08D00122FE
:1050C00000910648524203A9A047012004B010BD38
:1050D00000F092F90020F9E794270020313C0010FD
:1050E00000BEFDE710B5FFF7FBFFC04670B5FDF74A
:1050F0006BFC074D074EB54209D20024013E761BDA
:10510000B60808CD984723000134B342F9D170BDE9
:1051100044BB00104CBB0010030010B50800110088
:105120001B68984710BDC046F0B5C64600B5437D24
:1051300007000D001600002B38D0002A2EDD0021BC
:105140006A1E90466A5C037D4C1C00200A2A0CD023
:10515000A64216D043461B5D21000D3B5A425341E7
:105160006A5CDBB24C1C0A2AF2D1002BF0D18142DE
:1051700017DC022110483B689847A64207D0200060
:10518000E8E7864203DD311A3B6828189847AD19D5
:10519000013D2B780D3B5A4253413B7580BCB846CC
:1051A000F0BD091A3B6828189847E2E70368110028
:1051B00028009847F2E7C04658C20010F0B5C6462E
:1051C0000B6806000C0000B5802B06D05A1C22602C
:1051D000E418267180BCB846F0BD0F4B1D68002D49
:1051E00016D00B1D98460D4F02E02D69002D0FD0F3
:1051F0002B68002BF9D03B68002B01D0AB42F4D1D7
:10520000280041462268FFF78FFF2D69002DEFD15E
:1052100001220023DBE7C046141E002044200020AA
:10522000F0B5DE4657464E464546E0B585B0170018
:105230001C0006000D00FDF7F3F80023314A121898
:105240004B41802109068B4202D301222E4B524250
:105250002E4908008A4606F03FFC01906B1C03D1E2
:10526000300006F0B1FB0500002C26D0284B9846F4
:10527000284B1C68002C15D0002F21D1264F02E0AE
:105280002469002C0ED02368002BF9D03B68002B3A
:1052900001D0A342F4D120002A003100C047246984
:1052A000002CF0D1019B002B28D1280005B0F0BCC8
:1052B000BB46B246A946A046F0BD184B9846D7E774
:1052C000154B994602ABDF1D0A239B4602E0246979
:1052D000002CE7D02368002BF9D04B461B68002B2D
:1052E00001D0A342F3D12A0031002000C0475B4621
:1052F0000122390020003B70C047E8E7504606F025
:105300009BFBD2E740420F00FFFFFF7F40110020D0
:1053100029510010141E00204420002019510010B3
:105320000A4A1368002B05D10CE01A001B691032E1
:10533000002B07D09842F8D1002902D103691360ED
:10534000016170470029FCD01060FAE7141E0020AC
:1053500010B500F0B3F900F0FBFB012010BDC04612
:10536000F0B5CE46474680B583B06B460600DD1DDE
:105370002870FDF755F800231A4A12184B41802176
:1053800009068B4202D30122174B524217490800EB
:10539000884606F0A1FB164B81461C68002C14D0F1
:1053A000144F02E02469002C0FD02368002BF9D0A1
:1053B0003B68002B01D0A342F4D120000122290038
:1053C000FFF7B2FE2469002CEFD14B46002B05D12C
:1053D000300003B0C0BCB946B046F0BD404606F050
:1053E0002BFBF5E740420F00FFFFFF7F401100203D
:1053F000141E00204420002070B5040006F0E4FADA
:1054000001230100050001222000FFF709FF084BDE
:105410001C68002C06D06368002B05D098472469CF
:10542000002CF8D1280070BD2469002CF3D1F9E7D5
:10543000141E0020F0B5CE46474680B5A3B0040048
:105440000D00FCF7EDFF0023294A12184B41802183
:1054500009068B4202D30122264B5242264F3800C6
:1054600006F03AFB00230600019322002B0023489C
:1054700001A9FFF70DFE019B8046002B14D1204BA4
:105480001C68002C06D06368002B0BD09847246959
:10549000002CF8D1002E25D1404623B0C0BCB9461F
:1054A000B046F0BD2469ECE7154B1D689946002D08
:1054B0001CD0144C02E02D69002D0FD02B68002B5E
:1054C000F9D02368002B01D0AB42F4D12800019A17
:1054D00002A9FFF729FE2D69002DEFD14B4601955A
:1054E0001C68CEE7380006F0A7FAD5E70195D1E7AA
:1054F00040420F00FFFFFF7F40110020BD51001010
:10550000141E0020442000200FB400B583B004A96D
:1055100001C90191FFF78EFF03B008BC04B0184722
:10552000F0B5002915DD0E4B0D271A680D4B0E4CFA
:10553000D3185D426B41451820215B001E5F047843
:10554000A64207D093691942FCD101301460A842E9
:10555000F5D1F0BD93691942FCD11760F2E7C0465E
:10556000002800200080FCBFFC270020204B70B5E5
:1055700004000D1E1E682ADD002010211D4B013C79
:105580001A689369194214D1013093691942FCD108
:10559000136823548542F4D1002E08D0502393631E
:1055A000516B183B0B4014498C4662441360280031
:1055B0000CE0002E08D050239363516B183B0B4036
:1055C0000D498C466244136000280DD070BD002E3A
:1055D0000AD05022074B1B689A63596B183A0A404D
:1055E00005498C4663441A6003204042EEE7C046FA
:1055F0007C1D00200028002034100000064B10B550
:105600001B68002B06D00021044A12689163044AEB
:105610001068984710BDC0467C1D0020002800205F
:10562000841D00200822034B19688B691A42FCD1A3
:105630007047C04600280020F8B51A4F1A4B3A6848
:105640000500D31858424341184E14331C003368E8
:10565000002D02D0002B0FD0F8BD002BFCD0002174
:1056600020009563FBF7A2FF20001149FCF7F0F83A
:10567000104B35601D60EFE70E4B200019600C49A0
:105680003560FBF7CBFF01212000FBF78FFF502295
:105690003B689A63596B183A0A4007498C46634441
:1056A0001A60D9E7002800200080FCBF7C1D002084
:1056B000FD550010841D0020341000000D4B10B566
:1056C0001B780D4B0D4C1B780D4B02211B780D4B9D
:1056D00000202360FBF764FE02210120FBF760FE3F
:1056E000E12120684902FCF7E9FE01210648FFF7A5
:1056F00017FE10BDF8240810F4240810002800201C
:10570000F024081000400340F01000207047C0460D
:105710000022014B1A707047212800204B7900208D
:10572000FF2B0BD18B79002B08D1CB79012B05D125
:10573000082A03D9024B8A7809301A707047C0468C
:10574000212800200120704710B5012901D0012037
:1057500010BD13495379107909781B0203430020C7
:105760009942F5D15378012B08D0022BF0D10020BB
:1057700064220021FDF770F80120E9E7D3789178E1
:105780001B021943DB0507D54A0A100001231A4002
:105790007E331940FDF7E8F801204A0A4042F5E758
:1057A00021280020004870476CC3001070B5050028
:1057B00014000120012909D153780020012B05D1C3
:1057C000637912791B021343072B00D070BD2100AF
:1057D0002800024A9F3301F065FAF7E7C4C20010BF
:1057E0000123037000487047A4C200104B780A7868
:1057F0001B0213438A7810B512041A43CB781B0698
:1058000013439622D200934200D010BD0022012003
:1058100011004042FDF7A8F8024B1860024B1960D6
:105820007047C046801D0020881D002010B5024B27
:105830001878FBF7D9FE10BD23280020154B70B552
:105840001A68002A22D0EFF3108172B6106800287F
:10585000FCD0BFF35F8F00200F4A596010701B68A7
:10586000BFF35F8F186081F31088002400250B4E72
:105870003078FBF7ADFE002804D100240025290074
:10588000200070BD3078FBF7AFFEF8E7FA24002562
:10589000A400ECE7BC2700202428002023280020B7
:1058A00070B5040000200E0001F01CFB002836D06B
:1058B000002001F02DFB002831D0FCF7B1FD0023C2
:1058C000184A12184B41802109068B4216D2164DF8
:1058D000280006F001F9002821D0002001F002FB89
:1058E00000280FD101200021404200F00BFD0324CD
:1058F0006442280006F0A0F8200070BD01220B4B86
:105900005242E4E7002001F003FB0028EAD0210026
:105910003200002001F006FB041EEAD1E7E7032471
:105920006442E9E740420F00F4270020FFFFFF7FB9
:1059300010B5FCF775FD00230E4A12184B4180216B
:1059400009068B4202D301220B4B52420B4C200022
:1059500006F0C2F800280CD001200021404200F0DF
:10596000D1FC002001F028FB0028F5D1200006F032
:1059700063F810BD40420F00FFFFFF7FF4270020B7
:10598000F8B5DE46574680B505000C00FCF748FD2B
:105990000023374A12184B41802109068B4202D35B
:1059A0000122344B5242344908008A4606F094F8EA
:1059B000002803D1C0BCBB46B246F8BD002001F0B0
:1059C00091FA00284AD00026002C43DD2B4B9B4641
:1059D00014E0A919002001F029FB07000120002193
:1059E000404200F08FFC002001F0E6FAFCF718FDC1
:1059F000224BF61918605960B4422BDD002001F0EB
:105A000035FBA71B0200B84200DD3A00002AE0D1B6
:105A100001200021404200F075FC002001F0CCFA8A
:105A2000002001F05FFA002814D0002001F01EFBD6
:105A30000028E1D1FCF7F4FC5B460F001A685B68B4
:105A4000002184460E4812184B419F4202D8D3D100
:105A50009445D1D9504605F0EFFFABE70020002177
:105A6000064B18605960504605F0E6FFA2E7C046B5
:105A700040420F00FFFFFF7FF4270020C8120020E4
:105A800020A1070030B52B4C85B00021200006F086
:105A900003F800281CD1284B1A68002A16D0EFF30F
:105AA000108172B610680028FCD0BFF35F8F01240C
:105AB0002248596002781B68D2B20470BFF35F8F2E
:105AC0000020186081F31088002A17D005B030BD7F
:105AD00001200021404200F015FC002001F018FADE
